{
  "_format": "hh-sol-artifact-1",
  "contractName": "Todo",
  "sourceName": "contracts/Todo.sol",
  "abi": [
    {
      "inputs": [],
      "stateMutability": "nonpayable",
      "type": "constructor"
    },
    {
      "inputs": [],
      "name": "allTask",
      "outputs": [
        {
          "components": [
            {
              "internalType": "uint256",
              "name": "id",
              "type": "uint256"
            },
            {
              "internalType": "string",
              "name": "name",
              "type": "string"
            },
            {
              "internalType": "string",
              "name": "date",
              "type": "string"
            }
          ],
          "internalType": "struct Todo.Task[]",
          "name": "",
          "type": "tuple[]"
        }
      ],
      "stateMutability": "view",
      "type": "function"
    },
    {
      "inputs": [
        {
          "internalType": "string",
          "name": "_taskName",
          "type": "string"
        },
        {
          "internalType": "string",
          "name": "_date",
          "type": "string"
        }
      ],
      "name": "createTask",
      "outputs": [],
      "stateMutability": "nonpayable",
      "type": "function"
    },
    {
      "inputs": [
        {
          "internalType": "uint256",
          "name": "_taskId",
          "type": "uint256"
        }
      ],
      "name": "deleteTask",
      "outputs": [],
      "stateMutability": "nonpayable",
      "type": "function"
    },
    {
      "inputs": [
        {
          "internalType": "uint256",
          "name": "_taskId",
          "type": "uint256"
        },
        {
          "internalType": "string",
          "name": "_taskName",
          "type": "string"
        },
        {
          "internalType": "string",
          "name": "_date",
          "type": "string"
        }
      ],
      "name": "updateTask",
      "outputs": [],
      "stateMutability": "nonpayable",
      "type": "function"
    },
    {
      "inputs": [
        {
          "internalType": "uint256",
          "name": "_taskId",
          "type": "uint256"
        }
      ],
      "name": "viewTask",
      "outputs": [
        {
          "components": [
            {
              "internalType": "uint256",
              "name": "id",
              "type": "uint256"
            },
            {
              "internalType": "string",
              "name": "name",
              "type": "string"
            },
            {
              "internalType": "string",
              "name": "date",
              "type": "string"
            }
          ],
          "internalType": "struct Todo.Task",
          "name": "",
          "type": "tuple"
        }
      ],
      "stateMutability": "view",
      "type": "function"
    }
  ],
  "bytecode": "0x6080604052600160055534801561001557600080fd5b50600080546001600160a01b03191633179055610b8d806100376000396000f3fe608060405234801561001057600080fd5b50600436106100575760003560e01c8063292a45851461005c5780633b3d7e5614610071578063560f31921461009a578063997c21a5146100ad578063c72ef41f146100c2575b600080fd5b61006f61006a36600461078b565b6100d5565b005b61008461007f3660046107f7565b6101b9565b6040516100919190610897565b60405180910390f35b61006f6100a83660046107f7565b610381565b6100b56103fe565b60405161009191906108b1565b61006f6100d0366004610913565b610620565b6040518060600160405280600554815260200185858080601f016020809104026020016040519081016040528093929190818152602001838380828437600092019190915250505090825250604080516020601f86018190048102820181019092528481529181019190859085908190840183828082843760009201829052509390945250506005548152600460209081526040909120835181559083015190915060018201906101869082610a26565b506040820151600282019061019b9082610a26565b505060058054915060006101ae83610afc565b919050555050505050565b6101dd60405180606001604052806000815260200160608152602001606081525090565b8180158015906101ee575060055481105b61022c5760405162461bcd60e51b815260206004820152600a602482015269125b9d985b1a5908125960b21b60448201526064015b60405180910390fd5b6004600084815260200190815260200160002060405180606001604052908160008201548152602001600182018054610264906109a3565b80601f0160208091040260200160405190810160405280929190818152602001828054610290906109a3565b80156102dd5780601f106102b2576101008083540402835291602001916102dd565b820191906000526020600020905b8154815290600101906020018083116102c057829003601f168201915b505050505081526020016002820180546102f6906109a3565b80601f0160208091040260200160405190810160405280929190818152602001828054610322906109a3565b801561036f5780601f106103445761010080835404028352916020019161036f565b820191906000526020600020905b81548152906001019060200180831161035257829003601f168201915b50505050508152505091505b50919050565b808015801590610392575060055481105b6103cb5760405162461bcd60e51b815260206004820152600a602482015269125b9d985b1a5908125960b21b6044820152606401610223565b6000828152600460205260408120818155906103ea60018301826106ec565b6103f86002830160006106ec565b50505050565b6060600060016005546104119190610b15565b67ffffffffffffffff8111156104295761042961098d565b60405190808252806020026020018201604052801561047e57816020015b61046b60405180606001604052806000815260200160608152602001606081525090565b8152602001906001900390816104475790505b50905060005b60016005546104939190610b15565b81101561037b57600460006104a9836001610b2e565b8152602001908152602001600020604051806060016040529081600082015481526020016001820180546104dc906109a3565b80601f0160208091040260200160405190810160405280929190818152602001828054610508906109a3565b80156105555780601f1061052a57610100808354040283529160200191610555565b820191906000526020600020905b81548152906001019060200180831161053857829003601f168201915b5050505050815260200160028201805461056e906109a3565b80601f016020809104026020016040519081016040528092919081815260200182805461059a906109a3565b80156105e75780601f106105bc576101008083540402835291602001916105e7565b820191906000526020600020905b8154815290600101906020018083116105ca57829003601f168201915b50505050508152505082828151811061060257610602610b41565b6020026020010181905250808061061890610afc565b915050610484565b604051806060016040528086815260200185858080601f016020809104026020016040519081016040528093929190818152602001838380828437600092019190915250505090825250604080516020601f8601819004810282018101909252848152918101919085908590819084018382808284376000920182905250939094525050878152600460209081526040909120835181559083015190915060018201906106cd9082610a26565b50604082015160028201906106e29082610a26565b5050505050505050565b5080546106f8906109a3565b6000825580601f10610708575050565b601f0160209004906000526020600020908101906107269190610729565b50565b5b8082111561073e576000815560010161072a565b5090565b60008083601f84011261075457600080fd5b50813567ffffffffffffffff81111561076c57600080fd5b60208301915083602082850101111561078457600080fd5b9250929050565b600080600080604085870312156107a157600080fd5b843567ffffffffffffffff808211156107b957600080fd5b6107c588838901610742565b909650945060208701359150808211156107de57600080fd5b506107eb87828801610742565b95989497509550505050565b60006020828403121561080957600080fd5b5035919050565b6000815180845260005b818110156108365760208185018101518683018201520161081a565b506000602082860101526020601f19601f83011685010191505092915050565b8051825260006020820151606060208501526108756060850182610810565b90506040830151848203604086015261088e8282610810565b95945050505050565b6020815260006108aa6020830184610856565b9392505050565b6000602080830181845280855180835260408601915060408160051b870101925083870160005b8281101561090657603f198886030184526108f4858351610856565b945092850192908501906001016108d8565b5092979650505050505050565b60008060008060006060868803121561092b57600080fd5b85359450602086013567ffffffffffffffff8082111561094a57600080fd5b61095689838a01610742565b9096509450604088013591508082111561096f57600080fd5b5061097c88828901610742565b969995985093965092949392505050565b634e487b7160e01b600052604160045260246000fd5b600181811c908216806109b757607f821691505b60208210810361037b57634e487b7160e01b600052602260045260246000fd5b601f821115610a2157600081815260208120601f850160051c810160208610156109fe5750805b601f850160051c820191505b81811015610a1d57828155600101610a0a565b5050505b505050565b815167ffffffffffffffff811115610a4057610a4061098d565b610a5481610a4e84546109a3565b846109d7565b602080601f831160018114610a895760008415610a715750858301515b600019600386901b1c1916600185901b178555610a1d565b600085815260208120601f198616915b82811015610ab857888601518255948401946001909101908401610a99565b5085821015610ad65787850151600019600388901b60f8161c191681555b5050505050600190811b01905550565b634e487b7160e01b600052601160045260246000fd5b600060018201610b0e57610b0e610ae6565b5060010190565b81810381811115610b2857610b28610ae6565b92915050565b80820180821115610b2857610b28610ae6565b634e487b7160e01b600052603260045260246000fdfea26469706673582212209a31ae84b635bc2fcfa25670328851ee59b1ff130ef15ddeddd79e8ae72c29ba64736f6c63430008130033",
  "linkReferences": {},
  "deployedLinkReferences": {}
}