{
  "_format": "hh-sol-artifact-1",
  "contractName": "Todo",
  "sourceName": "contracts/Todo.sol",
  "abi": [
    {
      "inputs": [],
      "stateMutability": "nonpayable",
      "type": "constructor"
    },
    {
      "inputs": [],
      "name": "allTask",
      "outputs": [
        {
          "components": [
            {
              "internalType": "uint256",
              "name": "id",
              "type": "uint256"
            },
            {
              "internalType": "string",
              "name": "name",
              "type": "string"
            },
            {
              "internalType": "string",
              "name": "date",
              "type": "string"
            }
          ],
          "internalType": "struct Todo.Task[]",
          "name": "",
          "type": "tuple[]"
        }
      ],
      "stateMutability": "view",
      "type": "function"
    },
    {
      "inputs": [],
      "name": "contractOwner",
      "outputs": [
        {
          "internalType": "address",
          "name": "",
          "type": "address"
        }
      ],
      "stateMutability": "view",
      "type": "function"
    },
    {
      "inputs": [
        {
          "internalType": "string",
          "name": "_taskName",
          "type": "string"
        },
        {
          "internalType": "string",
          "name": "_date",
          "type": "string"
        }
      ],
      "name": "createTask",
      "outputs": [],
      "stateMutability": "nonpayable",
      "type": "function"
    },
    {
      "inputs": [
        {
          "internalType": "uint256",
          "name": "_taskId",
          "type": "uint256"
        }
      ],
      "name": "deleteTask",
      "outputs": [],
      "stateMutability": "nonpayable",
      "type": "function"
    },
    {
      "inputs": [
        {
          "internalType": "address",
          "name": "newOwner",
          "type": "address"
        }
      ],
      "name": "transferOwnership",
      "outputs": [],
      "stateMutability": "nonpayable",
      "type": "function"
    },
    {
      "inputs": [
        {
          "internalType": "uint256",
          "name": "_taskId",
          "type": "uint256"
        },
        {
          "internalType": "string",
          "name": "_taskName",
          "type": "string"
        },
        {
          "internalType": "string",
          "name": "_date",
          "type": "string"
        }
      ],
      "name": "updateTask",
      "outputs": [],
      "stateMutability": "nonpayable",
      "type": "function"
    },
    {
      "inputs": [
        {
          "internalType": "uint256",
          "name": "_taskId",
          "type": "uint256"
        }
      ],
      "name": "viewTask",
      "outputs": [
        {
          "components": [
            {
              "internalType": "uint256",
              "name": "id",
              "type": "uint256"
            },
            {
              "internalType": "string",
              "name": "name",
              "type": "string"
            },
            {
              "internalType": "string",
              "name": "date",
              "type": "string"
            }
          ],
          "internalType": "struct Todo.Task",
          "name": "",
          "type": "tuple"
        }
      ],
      "stateMutability": "view",
      "type": "function"
    }
  ],
  "bytecode": "0x608060405234801561001057600080fd5b50600080546001600160a01b03191633179055610dc8806100326000396000f3fe608060405234801561001057600080fd5b506004361061007d5760003560e01c8063997c21a51161005b578063997c21a5146100d3578063c72ef41f146100e8578063ce606ee0146100fb578063f2fde38b1461011657600080fd5b8063292a4585146100825780633b3d7e5614610097578063560f3192146100c0575b600080fd5b610095610090366004610979565b610129565b005b6100aa6100a53660046109e5565b61023b565b6040516100b79190610a85565b60405180910390f35b6100956100ce3660046109e5565b610437565b6100db6104b1565b6040516100b79190610a9f565b6100956100f6366004610b01565b6106e0565b6000546040516001600160a01b0390911681526020016100b7565b610095610124366004610b7b565b6107f0565b33600090815260056020526040812054610144906001610bba565b9050604051806060016040528082815260200186868080601f016020809104026020016040519081016040528093929190818152602001838380828437600092019190915250505090825250604080516020601f87018190048102820181019092528581529181019190869086908190840183828082843760009201829052509390945250503381526004602090815260408083208684528252909120835181559083015190915060018201906101fb9082610c6c565b50604082015160028201906102109082610c6c565b5050336000908152600560205260408120805492509061022f83610d2c565b91905055505050505050565b61025f60405180606001604052806000815260200160608152602001606081525090565b81801580159061027e5750336000908152600560205260409020548111155b6102a35760405162461bcd60e51b815260040161029a90610d45565b60405180910390fd5b8280158015906102c25750336000908152600560205260409020548111155b6102de5760405162461bcd60e51b815260040161029a90610d45565b33600090815260046020908152604080832087845282529182902082516060810190935280548352600181018054919284019161031a90610be9565b80601f016020809104026020016040519081016040528092919081815260200182805461034690610be9565b80156103935780601f1061036857610100808354040283529160200191610393565b820191906000526020600020905b81548152906001019060200180831161037657829003601f168201915b505050505081526020016002820180546103ac90610be9565b80601f01602080910402602001604051908101604052809291908181526020018280546103d890610be9565b80156104255780601f106103fa57610100808354040283529160200191610425565b820191906000526020600020905b81548152906001019060200180831161040857829003601f168201915b50505050508152505092505050919050565b8080158015906104565750336000908152600560205260409020548111155b6104725760405162461bcd60e51b815260040161029a90610d45565b33600090815260046020908152604080832085845290915281208181559061049d60018301826108da565b6104ab6002830160006108da565b50505050565b336000908152600560205260408120546060919067ffffffffffffffff8111156104dd576104dd610bd3565b60405190808252806020026020018201604052801561053257816020015b61051f60405180606001604052806000815260200160608152602001606081525090565b8152602001906001900390816104fb5790505b50905060015b3360009081526005602052604090205481116106da5733600090815260046020908152604080832084845282529182902082516060810190935280548352600181018054919284019161058a90610be9565b80601f01602080910402602001604051908101604052809291908181526020018280546105b690610be9565b80156106035780601f106105d857610100808354040283529160200191610603565b820191906000526020600020905b8154815290600101906020018083116105e657829003601f168201915b5050505050815260200160028201805461061c90610be9565b80601f016020809104026020016040519081016040528092919081815260200182805461064890610be9565b80156106955780601f1061066a57610100808354040283529160200191610695565b820191906000526020600020905b81548152906001019060200180831161067857829003601f168201915b505050505081525050826001836106ac9190610d69565b815181106106bc576106bc610d7c565b602002602001018190525080806106d290610d2c565b915050610538565b50919050565b8480158015906106ff5750336000908152600560205260409020548111155b61071b5760405162461bcd60e51b815260040161029a90610d45565b604051806060016040528087815260200186868080601f016020809104026020016040519081016040528093929190818152602001838380828437600092019190915250505090825250604080516020601f87018190048102820181019092528581529181019190869086908190840183828082843760009201829052509390945250503381526004602090815260408083208b84528252909120835181559083015190915060018201906107d09082610c6c565b50604082015160028201906107e59082610c6c565b505050505050505050565b6000546001600160a01b031633146108625760405162461bcd60e51b815260206004820152602f60248201527f4f6e6c792074686520636f6e7472616374206f776e65722063616e207065726660448201526e37b936903a3434b99030b1ba34b7b760891b606482015260840161029a565b6001600160a01b0381166108b85760405162461bcd60e51b815260206004820152601960248201527f496e76616c6964206e6577206f776e6572206164647265737300000000000000604482015260640161029a565b600080546001600160a01b0319166001600160a01b0392909216919091179055565b5080546108e690610be9565b6000825580601f106108f6575050565b601f0160209004906000526020600020908101906109149190610917565b50565b5b8082111561092c5760008155600101610918565b5090565b60008083601f84011261094257600080fd5b50813567ffffffffffffffff81111561095a57600080fd5b60208301915083602082850101111561097257600080fd5b9250929050565b6000806000806040858703121561098f57600080fd5b843567ffffffffffffffff808211156109a757600080fd5b6109b388838901610930565b909650945060208701359150808211156109cc57600080fd5b506109d987828801610930565b95989497509550505050565b6000602082840312156109f757600080fd5b5035919050565b6000815180845260005b81811015610a2457602081850181015186830182015201610a08565b506000602082860101526020601f19601f83011685010191505092915050565b805182526000602082015160606020850152610a6360608501826109fe565b905060408301518482036040860152610a7c82826109fe565b95945050505050565b602081526000610a986020830184610a44565b9392505050565b6000602080830181845280855180835260408601915060408160051b870101925083870160005b82811015610af457603f19888603018452610ae2858351610a44565b94509285019290850190600101610ac6565b5092979650505050505050565b600080600080600060608688031215610b1957600080fd5b85359450602086013567ffffffffffffffff80821115610b3857600080fd5b610b4489838a01610930565b90965094506040880135915080821115610b5d57600080fd5b50610b6a88828901610930565b969995985093965092949392505050565b600060208284031215610b8d57600080fd5b81356001600160a01b0381168114610a9857600080fd5b634e487b7160e01b600052601160045260246000fd5b80820180821115610bcd57610bcd610ba4565b92915050565b634e487b7160e01b600052604160045260246000fd5b600181811c90821680610bfd57607f821691505b6020821081036106da57634e487b7160e01b600052602260045260246000fd5b601f821115610c6757600081815260208120601f850160051c81016020861015610c445750805b601f850160051c820191505b81811015610c6357828155600101610c50565b5050505b505050565b815167ffffffffffffffff811115610c8657610c86610bd3565b610c9a81610c948454610be9565b84610c1d565b602080601f831160018114610ccf5760008415610cb75750858301515b600019600386901b1c1916600185901b178555610c63565b600085815260208120601f198616915b82811015610cfe57888601518255948401946001909101908401610cdf565b5085821015610d1c5787850151600019600388901b60f8161c191681555b5050505050600190811b01905550565b600060018201610d3e57610d3e610ba4565b5060010190565b6020808252600a9082015269125b9d985b1a5908125960b21b604082015260600190565b81810381811115610bcd57610bcd610ba4565b634e487b7160e01b600052603260045260246000fdfea26469706673582212208a5cb630d140d1d89222f01ac50c4d04ca228b1f9db675b47186fc077943afcd64736f6c63430008130033",
  "linkReferences": {},
  "deployedLinkReferences": {}
}